{
  "address": "0x238171E0E82F4a2840d810f931677c038044AD2B",
  "abi": [
    {
      "inputs": [
        {
          "internalType": "address",
          "name": "token_addr",
          "type": "address"
        }
      ],
      "stateMutability": "nonpayable",
      "type": "constructor"
    },
    {
      "inputs": [],
      "name": "deposit",
      "outputs": [
        {
          "internalType": "uint256",
          "name": "",
          "type": "uint256"
        }
      ],
      "stateMutability": "payable",
      "type": "function"
    },
    {
      "inputs": [],
      "name": "ethToToken",
      "outputs": [
        {
          "internalType": "uint256",
          "name": "",
          "type": "uint256"
        }
      ],
      "stateMutability": "payable",
      "type": "function"
    },
    {
      "inputs": [
        {
          "internalType": "uint256",
          "name": "tokens",
          "type": "uint256"
        }
      ],
      "name": "init",
      "outputs": [
        {
          "internalType": "uint256",
          "name": "",
          "type": "uint256"
        }
      ],
      "stateMutability": "payable",
      "type": "function"
    },
    {
      "inputs": [
        {
          "internalType": "address",
          "name": "",
          "type": "address"
        }
      ],
      "name": "liquidity",
      "outputs": [
        {
          "internalType": "uint256",
          "name": "",
          "type": "uint256"
        }
      ],
      "stateMutability": "view",
      "type": "function"
    },
    {
      "inputs": [
        {
          "internalType": "uint256",
          "name": "input_amount",
          "type": "uint256"
        },
        {
          "internalType": "uint256",
          "name": "input_reserve",
          "type": "uint256"
        },
        {
          "internalType": "uint256",
          "name": "output_reserve",
          "type": "uint256"
        }
      ],
      "name": "price",
      "outputs": [
        {
          "internalType": "uint256",
          "name": "",
          "type": "uint256"
        }
      ],
      "stateMutability": "view",
      "type": "function"
    },
    {
      "inputs": [
        {
          "internalType": "uint256",
          "name": "tokens",
          "type": "uint256"
        }
      ],
      "name": "tokenToEth",
      "outputs": [
        {
          "internalType": "uint256",
          "name": "",
          "type": "uint256"
        }
      ],
      "stateMutability": "nonpayable",
      "type": "function"
    },
    {
      "inputs": [],
      "name": "totalLiquidity",
      "outputs": [
        {
          "internalType": "uint256",
          "name": "",
          "type": "uint256"
        }
      ],
      "stateMutability": "view",
      "type": "function"
    },
    {
      "inputs": [
        {
          "internalType": "uint256",
          "name": "liq_amount",
          "type": "uint256"
        }
      ],
      "name": "withdraw",
      "outputs": [
        {
          "internalType": "uint256",
          "name": "",
          "type": "uint256"
        },
        {
          "internalType": "uint256",
          "name": "",
          "type": "uint256"
        }
      ],
      "stateMutability": "nonpayable",
      "type": "function"
    }
  ],
  "transactionHash": "0xadd19bd4feacf6d0ef50f79385ebe3e367889d1efd153eda7b2a2e45947a7e2a",
  "args": [
    "0x1deBB56976eA20C45f95EB73E4242371DFA06aC4"
  ],
  "solcInputHash": "707ade65f1f1cb9ad45475c555301035",
  "bytecode": "0x608060405234801561001057600080fd5b50604051610b0e380380610b0e83398101604081905261002f91610054565b600080546001600160a01b0319166001600160a01b0392909216919091179055610082565b600060208284031215610065578081fd5b81516001600160a01b038116811461007b578182fd5b9392505050565b610a7d806100916000396000f3fe60806040526004361061007b5760003560e01c8063789770f41161004e578063789770f41461011e578063b7b0422d14610126578063b8c876b114610139578063d0e30db01461016657600080fd5b806315770f92146100805780632071a9f4146100a95780632e1a7d4d146100c957806370b2a30f146100fe575b600080fd5b34801561008c57600080fd5b5061009660015481565b6040519081526020015b60405180910390f35b3480156100b557600080fd5b506100966100c4366004610998565b61016e565b3480156100d557600080fd5b506100e96100e4366004610968565b6101bd565b604080519283526020830191909152016100a0565b34801561010a57600080fd5b50610096610119366004610968565b6103ef565b610096610545565b610096610134366004610968565b61066d565b34801561014557600080fd5b50610096610154366004610921565b60026020526000908152604090205481565b610096610775565b60008061017d856103e56109fb565b9050600061018b84836109fb565b905060008261019c876103e86109fb565b6101a691906109c3565b90506101b281836109db565b979650505050505050565b600080546040516370a0823160e01b8152306004820152829182916001600160a01b03909116906370a082319060240160206040518083038186803b15801561020557600080fd5b505afa158015610219573d6000803e3d6000fd5b505050506040513d601f19601f8201168201806040525081019061023d9190610980565b90506000600154478661025091906109fb565b61025a91906109db565b90506000600154838761026d91906109fb565b61027791906109db565b3360009081526002602052604081208054929350889290919061029b908490610a1a565b9250508190555085600160008282546102b49190610a1a565b9091555050604051600090339084908381818185875af1925050503d80600081146102fb576040519150601f19603f3d011682016040523d82523d6000602084013e610300565b606091505b50509050806103565760405162461bcd60e51b815260206004820152601860248201527f4661696c656420746f2073656e642075736572206574682e000000000000000060448201526064015b60405180910390fd5b60005460405163a9059cbb60e01b8152336004820152602481018490526001600160a01b039091169063a9059cbb90604401602060405180830381600087803b1580156103a257600080fd5b505af11580156103b6573d6000803e3d6000fd5b505050506040513d601f19601f820116820180604052508101906103da9190610948565b6103e357600080fd5b50909590945092505050565b600080546040516370a0823160e01b815230600482015282916001600160a01b0316906370a082319060240160206040518083038186803b15801561043357600080fd5b505afa158015610447573d6000803e3d6000fd5b505050506040513d601f19601f8201168201806040525081019061046b9190610980565b9050600061047a84834761016e565b604051909150339082156108fc029083906000818181858888f193505050501580156104aa573d6000803e3d6000fd5b506000546040516323b872dd60e01b8152336004820152306024820152604481018690526001600160a01b03909116906323b872dd90606401602060405180830381600087803b1580156104fd57600080fd5b505af1158015610511573d6000803e3d6000fd5b505050506040513d601f19601f820116820180604052508101906105359190610948565b61053e57600080fd5b9392505050565b600080546040516370a0823160e01b815230600482015282916001600160a01b0316906370a082319060240160206040518083038186803b15801561058957600080fd5b505afa15801561059d573d6000803e3d6000fd5b505050506040513d601f19601f820116820180604052508101906105c19190610980565b905060006105d9346105d38147610a1a565b8461016e565b60005460405163a9059cbb60e01b8152336004820152602481018390529192506001600160a01b03169063a9059cbb90604401602060405180830381600087803b15801561062657600080fd5b505af115801561063a573d6000803e3d6000fd5b505050506040513d601f19601f8201168201806040525081019061065e9190610948565b61066757600080fd5b92915050565b60006001546000146106c15760405162461bcd60e51b815260206004820181905260248201527f4445583a696e6974202d20616c726561647920686173206c6971756964697479604482015260640161034d565b47600181905533600081815260026020526040808220939093555491516323b872dd60e01b81526004810191909152306024820152604481018490526001600160a01b03909116906323b872dd90606401602060405180830381600087803b15801561072c57600080fd5b505af1158015610740573d6000803e3d6000fd5b505050506040513d601f19601f820116820180604052508101906107649190610948565b61076d57600080fd5b505060015490565b6000806107823447610a1a565b600080546040516370a0823160e01b815230600482015292935090916001600160a01b03909116906370a082319060240160206040518083038186803b1580156107cb57600080fd5b505afa1580156107df573d6000803e3d6000fd5b505050506040513d601f19601f820116820180604052508101906108039190610980565b905060008261081283346109fb565b61081c91906109db565b6108279060016109c3565b90506000836001543461083a91906109fb565b61084491906109db565b336000908152600260205260408120805492935083929091906108689084906109c3565b92505081905550806001600082825461088191906109c3565b90915550506000546040516323b872dd60e01b8152336004820152306024820152604481018490526001600160a01b03909116906323b872dd90606401602060405180830381600087803b1580156108d857600080fd5b505af11580156108ec573d6000803e3d6000fd5b505050506040513d601f19601f820116820180604052508101906109109190610948565b61091957600080fd5b949350505050565b600060208284031215610932578081fd5b81356001600160a01b038116811461053e578182fd5b600060208284031215610959578081fd5b8151801515811461053e578182fd5b600060208284031215610979578081fd5b5035919050565b600060208284031215610991578081fd5b5051919050565b6000806000606084860312156109ac578182fd5b505081359360208301359350604090920135919050565b600082198211156109d6576109d6610a31565b500190565b6000826109f657634e487b7160e01b81526012600452602481fd5b500490565b6000816000190483118215151615610a1557610a15610a31565b500290565b600082821015610a2c57610a2c610a31565b500390565b634e487b7160e01b600052601160045260246000fdfea2646970667358221220e3cf55a0ef707e1c44e8a2fc869ef5b2cc9015f60193482b78c3694f7aa6817964736f6c63430008040033",
  "devdoc": {
    "kind": "dev",
    "methods": {},
    "version": 1
  },
  "userdoc": {
    "kind": "user",
    "methods": {},
    "version": 1
  },
  "storageLayout": {
    "storage": [
      {
        "astId": 696,
        "contract": "contracts/DEX.sol:DEX",
        "label": "token",
        "offset": 0,
        "slot": "0",
        "type": "t_contract(IERC20)623"
      },
      {
        "astId": 698,
        "contract": "contracts/DEX.sol:DEX",
        "label": "totalLiquidity",
        "offset": 0,
        "slot": "1",
        "type": "t_uint256"
      },
      {
        "astId": 702,
        "contract": "contracts/DEX.sol:DEX",
        "label": "liquidity",
        "offset": 0,
        "slot": "2",
        "type": "t_mapping(t_address,t_uint256)"
      }
    ],
    "types": {
      "t_address": {
        "encoding": "inplace",
        "label": "address",
        "numberOfBytes": "20"
      },
      "t_contract(IERC20)623": {
        "encoding": "inplace",
        "label": "contract IERC20",
        "numberOfBytes": "20"
      },
      "t_mapping(t_address,t_uint256)": {
        "encoding": "mapping",
        "key": "t_address",
        "label": "mapping(address => uint256)",
        "numberOfBytes": "32",
        "value": "t_uint256"
      },
      "t_uint256": {
        "encoding": "inplace",
        "label": "uint256",
        "numberOfBytes": "32"
      }
    }
  }
}