{
  "_format": "hh-sol-artifact-1",
  "contractName": "DEX",
  "sourceName": "contracts/DEX.sol",
  "abi": [
    {
      "inputs": [
        {
          "internalType": "address",
          "name": "token_addr",
          "type": "address"
        }
      ],
      "stateMutability": "nonpayable",
      "type": "constructor"
    },
    {
      "inputs": [],
      "name": "deposit",
      "outputs": [
        {
          "internalType": "uint256",
          "name": "",
          "type": "uint256"
        }
      ],
      "stateMutability": "payable",
      "type": "function"
    },
    {
      "inputs": [],
      "name": "ethToToken",
      "outputs": [
        {
          "internalType": "uint256",
          "name": "",
          "type": "uint256"
        }
      ],
      "stateMutability": "payable",
      "type": "function"
    },
    {
      "inputs": [],
      "name": "getEthBalance",
      "outputs": [
        {
          "internalType": "uint256",
          "name": "",
          "type": "uint256"
        }
      ],
      "stateMutability": "view",
      "type": "function"
    },
    {
      "inputs": [],
      "name": "getTokenBalance",
      "outputs": [
        {
          "internalType": "uint256",
          "name": "",
          "type": "uint256"
        }
      ],
      "stateMutability": "view",
      "type": "function"
    },
    {
      "inputs": [],
      "name": "getTotalLiquidity",
      "outputs": [
        {
          "internalType": "uint256",
          "name": "",
          "type": "uint256"
        }
      ],
      "stateMutability": "view",
      "type": "function"
    },
    {
      "inputs": [
        {
          "internalType": "uint256",
          "name": "tokens",
          "type": "uint256"
        }
      ],
      "name": "init",
      "outputs": [
        {
          "internalType": "uint256",
          "name": "",
          "type": "uint256"
        }
      ],
      "stateMutability": "payable",
      "type": "function"
    },
    {
      "inputs": [
        {
          "internalType": "address",
          "name": "",
          "type": "address"
        }
      ],
      "name": "liquidity",
      "outputs": [
        {
          "internalType": "uint256",
          "name": "",
          "type": "uint256"
        }
      ],
      "stateMutability": "view",
      "type": "function"
    },
    {
      "inputs": [
        {
          "internalType": "uint256",
          "name": "input_amount",
          "type": "uint256"
        },
        {
          "internalType": "uint256",
          "name": "input_reserve",
          "type": "uint256"
        },
        {
          "internalType": "uint256",
          "name": "output_reserve",
          "type": "uint256"
        }
      ],
      "name": "price",
      "outputs": [
        {
          "internalType": "uint256",
          "name": "",
          "type": "uint256"
        }
      ],
      "stateMutability": "view",
      "type": "function"
    },
    {
      "inputs": [
        {
          "internalType": "uint256",
          "name": "input_amount",
          "type": "uint256"
        },
        {
          "internalType": "uint256",
          "name": "input_reserve",
          "type": "uint256"
        },
        {
          "internalType": "uint256",
          "name": "output_reserve",
          "type": "uint256"
        }
      ],
      "name": "price_output",
      "outputs": [
        {
          "internalType": "uint256",
          "name": "",
          "type": "uint256"
        }
      ],
      "stateMutability": "view",
      "type": "function"
    },
    {
      "inputs": [
        {
          "internalType": "uint256",
          "name": "tokens",
          "type": "uint256"
        }
      ],
      "name": "tokenToEth",
      "outputs": [
        {
          "internalType": "uint256",
          "name": "",
          "type": "uint256"
        }
      ],
      "stateMutability": "nonpayable",
      "type": "function"
    },
    {
      "inputs": [],
      "name": "totalLiquidity",
      "outputs": [
        {
          "internalType": "uint256",
          "name": "",
          "type": "uint256"
        }
      ],
      "stateMutability": "view",
      "type": "function"
    },
    {
      "inputs": [
        {
          "internalType": "uint256",
          "name": "liq_amount",
          "type": "uint256"
        }
      ],
      "name": "withdraw",
      "outputs": [
        {
          "internalType": "uint256",
          "name": "",
          "type": "uint256"
        },
        {
          "internalType": "uint256",
          "name": "",
          "type": "uint256"
        }
      ],
      "stateMutability": "nonpayable",
      "type": "function"
    }
  ],
  "bytecode": "0x608060405234801561001057600080fd5b50604051610ea8380380610ea883398101604081905261002f91610054565b600080546001600160a01b0319166001600160a01b0392909216919091179055610082565b600060208284031215610065578081fd5b81516001600160a01b038116811461007b578182fd5b9392505050565b610e17806100916000396000f3fe6080604052600436106100a75760003560e01c8063789770f411610064578063789770f41461017257806382b2e2571461017a578063b7b0422d1461018f578063b8c876b1146101a2578063d0e30db0146101cf578063d3b2367d146101d757600080fd5b806315770f92146100ac5780632071a9f4146100d55780632e1a7d4d146100f557806335c7e9251461012a57806370b2a30f1461013f57806370ed0ada1461015f575b600080fd5b3480156100b857600080fd5b506100c260015481565b6040519081526020015b60405180910390f35b3480156100e157600080fd5b506100c26100f0366004610d32565b6101f7565b34801561010157600080fd5b50610115610110366004610d02565b610246565b604080519283526020830191909152016100cc565b34801561013657600080fd5b506001546100c2565b34801561014b57600080fd5b506100c261015a366004610d02565b61051f565b34801561016b57600080fd5b50476100c2565b6100c26106c6565b34801561018657600080fd5b506100c261083f565b6100c261019d366004610d02565b6108c0565b3480156101ae57600080fd5b506100c26101bd366004610cbb565b60026020526000908152604090205481565b6100c26109c8565b3480156101e357600080fd5b506100c26101f2366004610d32565b610bab565b600080610206856103e5610d95565b905060006102148483610d95565b9050600082610225876103e8610d95565b61022f9190610d5d565b905061023b8183610d75565b979650505050505050565b600080600083116102975760405162461bcd60e51b8152602060048201526016602482015275576974686472617720736f6d65206574686572756d2160501b60448201526064015b60405180910390fd5b336000908152600260205260409020548311156102f65760405162461bcd60e51b815260206004820152601760248201527f576974686472617720616d6f756e742065786365656421000000000000000000604482015260640161028e565b600080546040516370a0823160e01b81523060048201526001600160a01b03909116906370a082319060240160206040518083038186803b15801561033a57600080fd5b505afa15801561034e573d6000803e3d6000fd5b505050506040513d601f19601f820116820180604052508101906103729190610d1a565b9050600060015447866103859190610d95565b61038f9190610d75565b9050600060015483876103a29190610d95565b6103ac9190610d75565b336000908152600260205260408120805492935088929091906103d0908490610db4565b9250508190555085600160008282546103e99190610db4565b9091555050604051600090339084908381818185875af1925050503d8060008114610430576040519150601f19603f3d011682016040523d82523d6000602084013e610435565b606091505b50509050806104865760405162461bcd60e51b815260206004820152601860248201527f4661696c656420746f2073656e642075736572206574682e0000000000000000604482015260640161028e565b60005460405163a9059cbb60e01b8152336004820152602481018490526001600160a01b039091169063a9059cbb90604401602060405180830381600087803b1580156104d257600080fd5b505af11580156104e6573d6000803e3d6000fd5b505050506040513d601f19601f8201168201806040525081019061050a9190610ce2565b61051357600080fd5b50909590945092505050565b60008082116105705760405162461bcd60e51b815260206004820152601e60248201527f5377617020736f6d6520746f6b656e7320666f7220657468657265756d210000604482015260640161028e565b600080546040516370a0823160e01b81523060048201526001600160a01b03909116906370a082319060240160206040518083038186803b1580156105b457600080fd5b505afa1580156105c8573d6000803e3d6000fd5b505050506040513d601f19601f820116820180604052508101906105ec9190610d1a565b905060006105fb8483476101f7565b604051909150339082156108fc029083906000818181858888f1935050505015801561062b573d6000803e3d6000fd5b506000546040516323b872dd60e01b8152336004820152306024820152604481018690526001600160a01b03909116906323b872dd90606401602060405180830381600087803b15801561067e57600080fd5b505af1158015610692573d6000803e3d6000fd5b505050506040513d601f19601f820116820180604052508101906106b69190610ce2565b6106bf57600080fd5b9392505050565b60008034116107175760405162461bcd60e51b815260206004820152601e60248201527f5377617020736f6d6520657468657265756d20666f7220746f6b656e73210000604482015260640161028e565b600080546040516370a0823160e01b81523060048201526001600160a01b03909116906370a082319060240160206040518083038186803b15801561075b57600080fd5b505afa15801561076f573d6000803e3d6000fd5b505050506040513d601f19601f820116820180604052508101906107939190610d1a565b905060006107ab346107a58147610db4565b846101f7565b60005460405163a9059cbb60e01b8152336004820152602481018390529192506001600160a01b03169063a9059cbb90604401602060405180830381600087803b1580156107f857600080fd5b505af115801561080c573d6000803e3d6000fd5b505050506040513d601f19601f820116820180604052508101906108309190610ce2565b61083957600080fd5b92915050565b600080546040516370a0823160e01b81523060048201526001600160a01b03909116906370a082319060240160206040518083038186803b15801561088357600080fd5b505afa158015610897573d6000803e3d6000fd5b505050506040513d601f19601f820116820180604052508101906108bb9190610d1a565b905090565b60006001546000146109145760405162461bcd60e51b815260206004820181905260248201527f4445583a696e6974202d20616c726561647920686173206c6971756964697479604482015260640161028e565b47600181905533600081815260026020526040808220939093555491516323b872dd60e01b81526004810191909152306024820152604481018490526001600160a01b03909116906323b872dd90606401602060405180830381600087803b15801561097f57600080fd5b505af1158015610993573d6000803e3d6000fd5b505050506040513d601f19601f820116820180604052508101906109b79190610ce2565b6109c057600080fd5b505060015490565b6000803411610a125760405162461bcd60e51b81526020600482015260166024820152754465706f73697420736f6d6520657468657265756d2160501b604482015260640161028e565b6000610a1e3447610db4565b600080546040516370a0823160e01b815230600482015292935090916001600160a01b03909116906370a082319060240160206040518083038186803b158015610a6757600080fd5b505afa158015610a7b573d6000803e3d6000fd5b505050506040513d601f19601f82011682018060405250810190610a9f9190610d1a565b9050600082610aae8334610d95565b610ab89190610d75565b90508260015434610ac99190610d95565b610ad39190610d75565b60016000828254610ae49190610d5d565b90915550503360009081526002602052604081208054349290610b08908490610d5d565b90915550506000546040516323b872dd60e01b8152336004820152306024820152604481018390526001600160a01b03909116906323b872dd90606401602060405180830381600087803b158015610b5f57600080fd5b505af1158015610b73573d6000803e3d6000fd5b505050506040513d601f19601f82011682018060405250810190610b979190610ce2565b610ba057600080fd5b600154935050505090565b6000808411610c0a5760405162461bcd60e51b815260206004820152602560248201527f496e70757420616d6f756e742073686f756c6420626520677265617465722074604482015264068656e20360dc1b606482015260840161028e565b828410610c705760405162461bcd60e51b815260206004820152602e60248201527f496e70757420616d6f756e742073686f756c64206265206c657373207468656e60448201526d20696e707574207265736572766560901b606482015260840161028e565b6000610c7c8386610d95565b610c88906103e8610d95565b90506000610c968686610db4565b610ca2906103e5610d95565b90506000610cb08284610d75565b61023b906001610d5d565b600060208284031215610ccc578081fd5b81356001600160a01b03811681146106bf578182fd5b600060208284031215610cf3578081fd5b815180151581146106bf578182fd5b600060208284031215610d13578081fd5b5035919050565b600060208284031215610d2b578081fd5b5051919050565b600080600060608486031215610d46578182fd5b505081359360208301359350604090920135919050565b60008219821115610d7057610d70610dcb565b500190565b600082610d9057634e487b7160e01b81526012600452602481fd5b500490565b6000816000190483118215151615610daf57610daf610dcb565b500290565b600082821015610dc657610dc6610dcb565b500390565b634e487b7160e01b600052601160045260246000fdfea2646970667358221220d2767dfab17d8498a01c1943ddedf5ffaa465e5b28b2a2fbbf85a2a06242883864736f6c63430008040033",
  "linkReferences": {},
  "deployedLinkReferences": {}
}